{
  "contractName": "BlockWorkContract",
  "abi": [
    {
      "constant": true,
      "inputs": [],
      "name": "arbitrationFee",
      "outputs": [
        {
          "name": "",
          "type": "uint256"
        }
      ],
      "payable": false,
      "stateMutability": "view",
      "type": "function"
    },
    {
      "constant": true,
      "inputs": [],
      "name": "work",
      "outputs": [
        {
          "name": "",
          "type": "string"
        }
      ],
      "payable": false,
      "stateMutability": "view",
      "type": "function"
    },
    {
      "constant": true,
      "inputs": [],
      "name": "agreement",
      "outputs": [
        {
          "name": "",
          "type": "string"
        }
      ],
      "payable": false,
      "stateMutability": "view",
      "type": "function"
    },
    {
      "constant": true,
      "inputs": [],
      "name": "requester",
      "outputs": [
        {
          "name": "",
          "type": "address"
        }
      ],
      "payable": false,
      "stateMutability": "view",
      "type": "function"
    },
    {
      "constant": true,
      "inputs": [],
      "name": "isRejected",
      "outputs": [
        {
          "name": "",
          "type": "bool"
        }
      ],
      "payable": false,
      "stateMutability": "view",
      "type": "function"
    },
    {
      "constant": true,
      "inputs": [],
      "name": "contractFee",
      "outputs": [
        {
          "name": "",
          "type": "uint256"
        }
      ],
      "payable": false,
      "stateMutability": "view",
      "type": "function"
    },
    {
      "constant": true,
      "inputs": [],
      "name": "contractor",
      "outputs": [
        {
          "name": "",
          "type": "address"
        }
      ],
      "payable": false,
      "stateMutability": "view",
      "type": "function"
    },
    {
      "constant": true,
      "inputs": [],
      "name": "arbiter",
      "outputs": [
        {
          "name": "",
          "type": "address"
        }
      ],
      "payable": false,
      "stateMutability": "view",
      "type": "function"
    },
    {
      "inputs": [
        {
          "name": "_contractor",
          "type": "address"
        },
        {
          "name": "_arbiter",
          "type": "address"
        },
        {
          "name": "_agreement",
          "type": "string"
        },
        {
          "name": "_arbitrationFee",
          "type": "uint256"
        }
      ],
      "payable": true,
      "stateMutability": "payable",
      "type": "constructor"
    },
    {
      "anonymous": false,
      "inputs": [],
      "name": "WorkSubmitted",
      "type": "event"
    },
    {
      "anonymous": false,
      "inputs": [],
      "name": "WorkRejected",
      "type": "event"
    },
    {
      "anonymous": false,
      "inputs": [
        {
          "indexed": false,
          "name": "approved",
          "type": "bool"
        }
      ],
      "name": "ArbitrationResolved",
      "type": "event"
    },
    {
      "constant": false,
      "inputs": [
        {
          "name": "_work",
          "type": "string"
        }
      ],
      "name": "submit",
      "outputs": [],
      "payable": true,
      "stateMutability": "payable",
      "type": "function"
    },
    {
      "constant": false,
      "inputs": [],
      "name": "approve",
      "outputs": [],
      "payable": false,
      "stateMutability": "nonpayable",
      "type": "function"
    },
    {
      "constant": false,
      "inputs": [],
      "name": "reject",
      "outputs": [],
      "payable": false,
      "stateMutability": "nonpayable",
      "type": "function"
    },
    {
      "constant": false,
      "inputs": [],
      "name": "arbiterApprove",
      "outputs": [],
      "payable": false,
      "stateMutability": "nonpayable",
      "type": "function"
    },
    {
      "constant": false,
      "inputs": [],
      "name": "arbiterReject",
      "outputs": [],
      "payable": false,
      "stateMutability": "nonpayable",
      "type": "function"
    }
  ],
  "bytecode": "0x6080604052604051610e8a380380610e8a83398101806040528101908080519060200190929190805190602001909291908051820192919060200180519060200190929190505050336000806101000a81548173ffffffffffffffffffffffffffffffffffffffff021916908373ffffffffffffffffffffffffffffffffffffffff16021790555083600160006101000a81548173ffffffffffffffffffffffffffffffffffffffff021916908373ffffffffffffffffffffffffffffffffffffffff16021790555082600260006101000a81548173ffffffffffffffffffffffffffffffffffffffff021916908373ffffffffffffffffffffffffffffffffffffffff160217905550816003908051906020019061011f929190610156565b508060058190555060055434036006819055506000600760006101000a81548160ff021916908315150217905550505050506101fb565b828054600181600116156101000203166002900490600052602060002090601f016020900481019282601f1061019757805160ff19168380011785556101c5565b828001600101855582156101c5579182015b828111156101c45782518255916020019190600101906101a9565b5b5090506101d291906101d6565b5090565b6101f891905b808211156101f45760008160009055506001016101dc565b5090565b90565b610c808061020a6000396000f3006080604052600436106100c5576000357c0100000000000000000000000000000000000000000000000000000000900463ffffffff16806312424e3f146100ca5780631cfa7ba8146100e1578063322e9f041461010c57806335372d551461019c5780634dc415de146101b35780637db3a946146101ca57806392a654d71461025a578063b61e96a514610271578063c2c706b0146102c8578063d41977cd146102f7578063d99a8dc314610322578063fbfd20451461037e578063fe25e00a146103d5575b600080fd5b3480156100d657600080fd5b506100df61042c565b005b3480156100ed57600080fd5b506100f6610562565b6040518082815260200191505060405180910390f35b34801561011857600080fd5b50610121610568565b6040518080602001828103825283818151815260200191508051906020019080838360005b83811015610161578082015181840152602081019050610146565b50505050905090810190601f16801561018e5780820380516001836020036101000a031916815260200191505b509250505060405180910390f35b3480156101a857600080fd5b506101b1610606565b005b3480156101bf57600080fd5b506101c861079c565b005b3480156101d657600080fd5b506101df610840565b6040518080602001828103825283818151815260200191508051906020019080838360005b8381101561021f578082015181840152602081019050610204565b50505050905090810190601f16801561024c5780820380516001836020036101000a031916815260200191505b509250505060405180910390f35b34801561026657600080fd5b5061026f6108de565b005b34801561027d57600080fd5b50610286610a73565b604051808273ffffffffffffffffffffffffffffffffffffffff1673ffffffffffffffffffffffffffffffffffffffff16815260200191505060405180910390f35b3480156102d457600080fd5b506102dd610a98565b604051808215151515815260200191505060405180910390f35b34801561030357600080fd5b5061030c610aab565b6040518082815260200191505060405180910390f35b61037c600480360381019080803590602001908201803590602001908080601f0160208091040260200160405190810160405280939291908181526020018383808284378201915050505050509192919290505050610ab1565b005b34801561038a57600080fd5b50610393610b63565b604051808273ffffffffffffffffffffffffffffffffffffffff1673ffffffffffffffffffffffffffffffffffffffff16815260200191505060405180910390f35b3480156103e157600080fd5b506103ea610b89565b604051808273ffffffffffffffffffffffffffffffffffffffff1673ffffffffffffffffffffffffffffffffffffffff16815260200191505060405180910390f35b6000809054906101000a900473ffffffffffffffffffffffffffffffffffffffff1673ffffffffffffffffffffffffffffffffffffffff163373ffffffffffffffffffffffffffffffffffffffff1614151561048757600080fd5b600160009054906101000a900473ffffffffffffffffffffffffffffffffffffffff1673ffffffffffffffffffffffffffffffffffffffff166108fc600554600654019081150290604051600060405180830381858888f193505050501580156104f5573d6000803e3d6000fd5b506000809054906101000a900473ffffffffffffffffffffffffffffffffffffffff1673ffffffffffffffffffffffffffffffffffffffff166108fc6005549081150290604051600060405180830381858888f1935050505015801561055f573d6000803e3d6000fd5b50565b60055481565b60048054600181600116156101000203166002900480601f0160208091040260200160405190810160405280929190818152602001828054600181600116156101000203166002900480156105fe5780601f106105d3576101008083540402835291602001916105fe565b820191906000526020600020905b8154815290600101906020018083116105e157829003601f168201915b505050505081565b600260009054906101000a900473ffffffffffffffffffffffffffffffffffffffff1673ffffffffffffffffffffffffffffffffffffffff163373ffffffffffffffffffffffffffffffffffffffff1614151561066257600080fd5b60011515600760009054906101000a900460ff16151514151561068457600080fd5b600160009054906101000a900473ffffffffffffffffffffffffffffffffffffffff1673ffffffffffffffffffffffffffffffffffffffff166108fc600554600654019081150290604051600060405180830381858888f193505050501580156106f2573d6000803e3d6000fd5b50600260009054906101000a900473ffffffffffffffffffffffffffffffffffffffff1673ffffffffffffffffffffffffffffffffffffffff166108fc6005549081150290604051600060405180830381858888f1935050505015801561075d573d6000803e3d6000fd5b507f71568f7b6a12eefa5dca7247cc654201bd52f895996320a6cb122d7e584a8eea6001604051808215151515815260200191505060405180910390a1565b6000809054906101000a900473ffffffffffffffffffffffffffffffffffffffff1673ffffffffffffffffffffffffffffffffffffffff163373ffffffffffffffffffffffffffffffffffffffff161415156107f757600080fd5b6001600760006101000a81548160ff0219169083151502179055507f44e6bd0e9c41b745da700f344dab98f72124df09c294c262cfa6b778e8becf4a60405160405180910390a1565b60038054600181600116156101000203166002900480601f0160208091040260200160405190810160405280929190818152602001828054600181600116156101000203166002900480156108d65780601f106108ab576101008083540402835291602001916108d6565b820191906000526020600020905b8154815290600101906020018083116108b957829003601f168201915b505050505081565b600260009054906101000a900473ffffffffffffffffffffffffffffffffffffffff1673ffffffffffffffffffffffffffffffffffffffff163373ffffffffffffffffffffffffffffffffffffffff1614151561093a57600080fd5b60011515600760009054906101000a900460ff16151514151561095c57600080fd5b6000809054906101000a900473ffffffffffffffffffffffffffffffffffffffff1673ffffffffffffffffffffffffffffffffffffffff166108fc600554600654019081150290604051600060405180830381858888f193505050501580156109c9573d6000803e3d6000fd5b50600260009054906101000a900473ffffffffffffffffffffffffffffffffffffffff1673ffffffffffffffffffffffffffffffffffffffff166108fc6005549081150290604051600060405180830381858888f19350505050158015610a34573d6000803e3d6000fd5b507f71568f7b6a12eefa5dca7247cc654201bd52f895996320a6cb122d7e584a8eea6000604051808215151515815260200191505060405180910390a1565b6000809054906101000a900473ffffffffffffffffffffffffffffffffffffffff1681565b600760009054906101000a900460ff1681565b60065481565b600160009054906101000a900473ffffffffffffffffffffffffffffffffffffffff1673ffffffffffffffffffffffffffffffffffffffff163373ffffffffffffffffffffffffffffffffffffffff16141515610b0d57600080fd5b60055434141515610b1d57600080fd5b8060049080519060200190610b33929190610baf565b507f0b808243e9d7e26fc393a407b03e346bd206d83e1a99b992016e6ac452f27b4460405160405180910390a150565b600160009054906101000a900473ffffffffffffffffffffffffffffffffffffffff1681565b600260009054906101000a900473ffffffffffffffffffffffffffffffffffffffff1681565b828054600181600116156101000203166002900490600052602060002090601f016020900481019282601f10610bf057805160ff1916838001178555610c1e565b82800160010185558215610c1e579182015b82811115610c1d578251825591602001919060010190610c02565b5b509050610c2b9190610c2f565b5090565b610c5191905b80821115610c4d576000816000905550600101610c35565b5090565b905600a165627a7a72305820c7762b39352e23b856dd51ce9bf0b872c3b9dea19601f8f4494a723dd467ce690029",
  "source": "pragma solidity ^0.4.18;\r\n\r\ncontract BlockWorkContract {\r\n    address public requester;\r\n    address public contractor;\r\n    address public arbiter;\r\n\r\n    string public agreement;\r\n    string public work;\r\n\r\n    uint public arbitrationFee;\r\n    uint public contractFee;\r\n\r\n    bool public isRejected;\r\n\r\n    event WorkSubmitted();\r\n    event WorkRejected();\r\n    event ArbitrationResolved(bool approved);\r\n\r\n    constructor(\r\n        address _contractor,\r\n        address _arbiter,\r\n        string _agreement,\r\n        uint _arbitrationFee\r\n    ) public payable {\r\n        requester = msg.sender;\r\n        contractor = _contractor;\r\n        arbiter = _arbiter;\r\n        agreement = _agreement;\r\n        arbitrationFee = _arbitrationFee;\r\n        contractFee = msg.value - arbitrationFee;\r\n        isRejected = false;\r\n    }\r\n\r\n    function submit(string _work) public payable {\r\n        require(msg.sender == contractor);\r\n        require(msg.value == arbitrationFee);\r\n        work = _work;\r\n        emit WorkSubmitted();\r\n    }\r\n\r\n    function approve() public {\r\n        require(msg.sender == requester);\r\n        contractor.transfer(contractFee + arbitrationFee);\r\n        requester.transfer(arbitrationFee);\r\n    }\r\n\r\n    function reject() public {\r\n        require(msg.sender == requester);\r\n        isRejected = true;\r\n        emit WorkRejected();\r\n    }\r\n\r\n    function arbiterApprove() public {\r\n        require(msg.sender == arbiter);\r\n        require(isRejected == true);\r\n        contractor.transfer(contractFee + arbitrationFee);\r\n        arbiter.transfer(arbitrationFee);\r\n        emit ArbitrationResolved(true);\r\n    }\r\n\r\n    function arbiterReject() public {\r\n        require(msg.sender == arbiter);\r\n        require(isRejected == true);\r\n        requester.transfer(contractFee + arbitrationFee);\r\n        arbiter.transfer(arbitrationFee);\r\n        emit ArbitrationResolved(false);\r\n    }\r\n\r\n}\r\n",
  "sourcePath": "C:\\Users\\corbi\\OneDrive\\Documents\\GitHub\\Escrow-React\\truffle\\contracts\\blockwork.sol",
  "compiler": {
    "name": "solc",
    "version": "0.4.24+commit.e67f0147.Emscripten.clang"
  },
  "schemaVersion": "2.0.1",
  "updatedAt": "2018-10-07T04:57:20.442Z"
}